:100000000C942A000C9447000C9447000C94470071
:100010000C94BC020C9447000C9447000C944700CD
:100020000C9484020C9447000C9447000C944700F5
:100030000C9447000C9447000C9447000C94470024
:100040000C9447000C9447000C9447000C94470014
:100050000C94470011241FBECFE5D4E0DEBFCDBF16
:1000600010E0A0E6B0E0E0E6F8E002C005900D92F6
:10007000AA38B107D9F720E0AAE8B0E001C01D9284
:10008000A43BB207E1F70E945C020C942E040C948E
:10009000000081E58DB9BE9808958FEF8ABB8BBBB8
:1000A00087BB88BB84BB85BB9CEF91BB82BB08959B
:1000B00084E08EBD1DBC1CBC089586E085BD80E833
:1000C00084BD89B7806489BF0895CF93C82F0E94EB
:1000D00088000E9477018C2F0E944A0180E00E94D4
:1000E00044010E948800CF91089587B1806C87B940
:1000F00086B1866886B9D098D898D998DA98DB986E
:10010000DC98DD98D198D298D398D498D598089552
:10011000C09808958FB9779BFECF8EB18FB10895A7
:1001200080938B00811102C0C0980895C09A0895F1
:10013000C1980E948A008FEF0E948A00C19A089598
:100140001F93CF93DF93182FD62FC8B3C17080E0D1
:100150000E949000C198812F80620E948A008D2F9A
:100160000E948A00C19A8C2F0E949000DF91CF914B
:100170001F910895DF92EF92FF920F931F93CF93F9
:10018000DF93C82F7B01142FD8B2D0FADD24D0F82A
:1001900080E00E949000C1988C2F80620E948A00AB
:1001A000112371F0E7011150012F10E00F5F1F4F75
:1001B0000E0D1F1D89910E948A00C017D107D1F72B
:1001C000C19A8D2D0E949000DF91CF911F910F91C8
:1001D000FF90EF90DF900895C19881EE0E948A0011
:1001E000C19A0895C19882EE0E948A00C19A08952A
:1001F000C19887E00E948A00C19A0895CF93C82FC2
:100200000E94F800C198C077682F6C2B87E00E948D
:10021000A000C19A0E94F800CF9108950E94F800B2
:1002200080770895EF92FF920F931F93CF93DF9300
:100230007C01162F613208F010E20E94EC00C19898
:1002400080EA0E948A00112371F0E7011150012F0A
:1002500010E00F5F1F4F0E0D1F1D89910E948A0035
:10026000C017D107D1F7C19ADF91CF911F910F919C
:10027000FF90EF900895462F663008F045E0BC01EE
:1002800080E10E94BA000895682F6F7785E00E9490
:10029000A0000895CF93DF93C82F80E00E949800BC
:1002A000D82FC11105C0DE7F80E00E94900006C0FB
:1002B000C13021F4D16081E00E9490006D2F80E078
:1002C0000E94A000DF91CF91089580E00E949800E5
:1002D000682F6D7F80E00E94A000089580E00E945A
:1002E0009800682F626080E00E94A0000895CF937C
:1002F000DF9300D000D000D0CDB7DEB785E0E4E8D2
:10030000F0E0DE01119601900D928A95E1F788B335
:1003100081708E8380E00E9490000E94650180E7DA
:100320000E94FE0067E08CE10E94A00066E08DE183
:100330000E94A0008CE10E9498008DE10E9498002C
:100340008CE10E94980080938A008DE10E949800C1
:1003500080938A0068E080E00E94A00067E081E06E
:100360000E94A00067E082E00E94A00063E083E0BA
:100370000E94A00069E284E00E94A00060E085E0A5
:100380000E94A00067E286E00E94A00065E0CE0126
:1003900001960E943B0145E0BE016F5F7F4F8AE0FE
:1003A0000E94BA000E946E0186E00E94980080932D
:1003B0008A008F9826960FB6F894DEBF0FBECDBF89
:1003C000DF91CF910895CF93DF931F92CDB7DEB722
:1003D00019820E94F2000E94EC0060E284E690E044
:1003E0000E941201C09A89EF90E00197F1F700C0D6
:1003F00000000E940E0189838823D9F3C098898167
:1004000085FF06C0C09880E70E94FE0080E00FC014
:10041000898184FF06C0C09880E70E94FE0081E0C9
:1004200006C08981C09880E70E94FE00C0980F90A6
:10043000DF91CF910895369A349BFECF349A84B1E0
:1004400095B108950E947500D19A89EF90E00197C7
:10045000F1F700C000000E941B028F3F9340E9F4B7
:10046000D198D29A0E941B028F3F9340C9F4D29830
:10047000D39A0E941B028F3F9340A9F4D398D49A39
:100480000E941B028F3F934089F4D498D59A0E9412
:100490001B028F3F934069F4089581E090E0089536
:1004A00082E090E0089583E090E0089584E090E099
:1004B000089585E090E008950E944D000E94490053
:1004C0000E9458000E945D000E947500C39A939A92
:1004D00080E090E00E94650085B78F7485BFF89436
:1004E00085B7806485BF7894C3980E942202809368
:1004F0008E0081E090E090939100809390000E94A4
:10050000BB0380938A00FBCF1F920F920FB60F920E
:1005100011242F933F934F935F936F937F938F9308
:100520009F93AF93BF93EF93FF93939A80918C0027
:100530008B3088F00E94E301892B29F410928C0003
:1005400080E489BF08C0C39883EC99E00197F1F774
:1005500000C00000C39AFF91EF91BF91AF919F91AE
:100560008F917F916F915F914F913F912F910F905C
:100570000FBE0F901F9018951F920F920FB60F92FB
:1005800011242F933F934F935F936F937F938F9398
:100590009F93AF93BF93EF93FF93CF93DF931F92FC
:1005A000CDB7DEB780918C008B3010F084E089BF2E
:1005B00080E884BD8091900090919100892B09F48E
:1005C0007AC00E941B029093930080939200873B15
:1005D00023E0920748F48E35914008F04FC0809197
:1005E0008E00813009F44AC080918D00811146C08F
:1005F0000E94220280938E000E941B02909393001F
:10060000809392003BC081918D93E217F307D9F755
:1006100080918E00809382000E94E301892BF9F083
:1006200087EB9BE00197F1F700C000000E94E30117
:10063000892BB1F087EB9BE00197F1F700C0000038
:100640000E94E301892B21F4C39A10928C0008C008
:10065000C39880918C008F5F80938C0001C0C39AF7
:10066000839902C0939A01C0939810928D0081E003
:1006700080938F0080E88DBD1CBC1DC080919200CE
:100680009091930096958795969587958983E091AB
:100690008D0081E08E0F80938D009981F0E0EC5603
:1006A000FF4F90838E3131F7E4E9F0E0A4E6B0E04B
:1006B00024EB30E0A8CF0F90DF91CF91FF91EF9125
:1006C000BF91AF919F918F917F916F915F914F916A
:1006D0003F912F910F900FBE0F901F9018958F9202
:1006E0009F92AF92BF92CF92DF92EF92FF92CF9301
:1006F000DF93EC01688179818A819B8161157105A5
:100700008105910521F464E279ED8BE597E02DE117
:1007100033EF41E050E00E94CB0349015A019B01B5
:10072000AC01A7EAB1E40E94EA036B017C01ACEEE4
:10073000B4EFA50194010E94F803DC01CB018C0DFC
:100740009D1DAE1DBF1DB7FF03C00197A109B04895
:1007500088839983AA83BB839F77DF91CF91FF9092
:10076000EF90DF90CF90BF90AF909F908F900895C3
:100770000E946F03089580E690E00E946F03089541
:10078000A0E0B0E08093600090936100A0936200CD
:10079000B09363000895052E97FB1EF400940E9409
:1007A000E20357FD07D00E94FD0307FC03D04EF47F
:1007B0000C94E20350954095309521953F4F4F4F53
:1007C0005F4F089590958095709561957F4F8F4FFD
:1007D0009F4F08950E941F04A59F900DB49F900DF8
:1007E000A49F800D911D11240895B7FF0C94EA0376
:1007F0000E94EA03821B930B0895A1E21A2EAA1B02
:10080000BB1BFD010DC0AA1FBB1FEE1FFF1FA217C0
:10081000B307E407F50720F0A21BB30BE40BF50BBD
:10082000661F771F881F991F1A9469F76095709546
:10083000809590959B01AC01BD01CF010895A29FC9
:10084000B001B39FC001A39F700D811D1124911DA4
:10085000B29F700D811D1124911D0895F894FFCF52
:1008600001000000313233000000000000000000F1
:100870000000000000000000000000000000000078
:0A088000000000005533333333004D
:00000001FF
